:020000040800F2
:1000000000060020ED000008F1000008F3000008E1
:10001000F5000008F7000008F900000800000000E3
:10002000000000000000000000000000FB000008CD
:10003000FD00000800000000FF00000801010008AA
:100040000301000803010008030100080301000880
:100050000301000803010008030100080301000870
:100060000301000803010008030100080301000860
:100070000301000803010008030100080301000850
:100080000301000803010008030100080301000840
:100090000301000803010008030100080301000830
:1000A0000301000803010008030100080301000820
:1000B0000301000803010008030100080301000810
:1000C0000301000803010008030100080301000800
:1000D00003010008030100080301000803010008F0
:1000E0000301000803010008030100080848004755
:1000F000FEE7FEE7FEE7FEE7FEE7FEE7FEE7FEE7D8
:10010000FEE7FEE703480449044A054B7047000038
:100110006905000800000020000600200002002001
:1001200000020020580147013B00F3FC21FE7AFF4A
:1001300069FD9BFBC5FB9FFE26FF6DFE60FBCDFBB3
:1001400010FC5CFAB8F84BFCE30015032A0200042B
:10015000720500040902FBFA04FF75FC08FAD5F7E2
:100160004FF9D5F9F7F9BCF792F971FD36FB68F94B
:1001700053FADAFAAFF460F729F84BFC0CF94EF3B6
:10018000BCF3EAF481F9FFF5DDF5A3F779F7DDF5C6
:1001900081F5F3FE0503BDFDF7F921F81DF9AFF672
:1001A0005BF41DF9E2FC08FC86FAB4FD65FE54FE22
:1001B0003B009FFE86FE86FCFBF8BDFD50FF3BFE2C
:1001C00082FB21FC60FD6D0036FF69FDFC005D02D5
:1001D00019FEA3FB6DFA32FA89F12DF3EAF4EEF57C
:1001E00079F947F93EF9D6FD11FE00FE7AFFB50117
:1001F0007E0411022E01A004260360FF97FADAFEA6
:10020000150158FFB902190069038AFF2EFF690121
:100210005003050336FF970065047101DEFF19FEE8
:10022000DAFCAC01CE033FFDB900190050FFE6FB3C
:10023000A4FF4803CE0393038B051208A80411FE04
:100240000CFB60FF15FF58FD58FD00FCB0FAC5F926
:100250001CF75CFA79FB03F9A3F77EFC9FFE9FFC79
:10026000CDFDC9FE7600C1FE36FF87021503C1022F
:100270005D0426037205A40398041E07010AEC041A
:100280007600110011043F0304FD69FDE7FDF40051
:10029000D2001900BDFF2601000050FF22041E03FA
:1002A000DF01AC016E0494074C080D01ACFF8B0319
:1002B000CA00E70154FE15038F024701A000DEFFCC
:1002C000E70165FE71FD36FF9FFE58FF3BFE36FFDE
:1002D000080058FB15FD71FD3B023200F801A80231
:1002E00061054404DEFFC5FF6D002A020000CA025A
:1002F000AC038B03B0FE71FFA8FE6DFE47FBF7FB5E
:100300001DFFF4020401B900EB007207E703A80225
:100310003200D200E3001DFD58FD4BFE430060FD9E
:10032000A8FE00FCDA004BFA43FE2EFF760021FC0B
:1003300032F897FCACFD25FD69FD64FC15FFA3FDBB
:100340008EFA47FDD1FAEFFBDEF95CFAA3FBCDFB99
:10035000F7F9FBF8EAF8BCF925F720F4EFF90CF906
:1003600014F76CF8C0F63AF87DF818F6B8F825F9E5
:1003700018F8E6F3E2F821FC9BFDE6F932F825FDDA
:1003800047FDCDF929F8CDF707F635F5E6F57DF609
:1003900064F83AF88AF708FA7AFF21FCCDF911FEE1
:1003A000E30043FEB8F8E2F882FD8AFFD6FD69FF5C
:1003B0007A012E01DF01D202A002C1FEE6FB53F852
:1003C000C1FC1900DAFE04FDD2FE0D019FFE08FCFF
:1003D00011FE82FD47FD7DFA86FE6500E300B0FE5A
:1003E00097FE93011DFFB9FE8FFE2601110247FD06
:1003F000EAFAA8FCEFFD19FCBCF910FC2200F7FB9F
:10040000E2F84BFC58FD19FC9AF7E2FA32FCB4FF13
:1004100086FED6FD3302BDFF3FFD0CFDA002AC0100
:10042000A002EB024404CE034404C1023F0550077E
:10043000F402260122046105690515031A049407D4
:10044000C2062204580159071607050304FF650078
:100450009700A80075FE82FF71FF32FCB0FA11FE12
:10046000A80287020800820311046103CEFFBDFFCA
:100470001100DAFCDEF90000DEFF2603EB02480380
:10048000F00727078B0333022605B50950074404FC
:100490000108770A650644066E085508CA063F0338
:1004A0009C03F005BD0572032B06B1084007050348
:1004B00076048B054C08BD05B503A0068708BE076A
:1004C0004803A403C2048EFC7A05F0058B078B0554
:1004D000DF01D20269051A044300DA00B902A80458
:1004E00069038B01820344062F05D20254023703AD
:1004F0003F0397022E038F02220050FFE302DB042A
:10050000010861053F0505097203CA020000E6FF04
:10051000000000001600F8FF0000000000000000CE
:10052000F8FFE5FF0000170016000000E5000000DE
:10053000160017000000E5FFF8FF000000000000B3
:100540000000F8FF160000000000E6FF00000BFBB3
:100550000CFA4FEA2A2ABAF1000F02D4C0F2000ABC
:100560007047CFF6FF7A7047154816494FF00002E2
:10057000C2F200024FF00003B3F5856F1FDA4FF0AF
:1005800000044FF00009422C12DA1D1B0DD4B5F502
:100590007A7F0ADA05EB0006B6F900B004EB010732
:1005A000B7F900C0FFF7D3FFD14404F10204EAE732
:1005B00003EB0208A8F8009003F10203DCE700BF98
:0805C000240100080C050008ED
:04000005080000ED02
:00000001FF
